{"abi":[{"type":"constructor","inputs":[{"name":"_owner","type":"address","internalType":"address"},{"name":"_agent","type":"address","internalType":"address"},{"name":"_router","type":"address","internalType":"address"},{"name":"_policy","type":"address","internalType":"address"}],"stateMutability":"nonpayable"},{"type":"receive","stateMutability":"payable"},{"type":"function","name":"WETH","inputs":[],"outputs":[{"name":"","type":"address","internalType":"address"}],"stateMutability":"view"},{"type":"function","name":"agent","inputs":[],"outputs":[{"name":"","type":"address","internalType":"address"}],"stateMutability":"view"},{"type":"function","name":"availableYield","inputs":[],"outputs":[{"name":"","type":"uint256","internalType":"uint256"}],"stateMutability":"view"},{"type":"function","name":"balance","inputs":[{"name":"token","type":"address","internalType":"address"}],"outputs":[{"name":"","type":"uint256","internalType":"uint256"}],"stateMutability":"view"},{"type":"function","name":"depositETH","inputs":[],"outputs":[],"stateMutability":"payable"},{"type":"function","name":"depositToken","inputs":[{"name":"token","type":"address","internalType":"address"},{"name":"amount","type":"uint256","internalType":"uint256"}],"outputs":[],"stateMutability":"nonpayable"},{"type":"function","name":"depositedPrincipal","inputs":[],"outputs":[{"name":"","type":"uint256","internalType":"uint256"}],"stateMutability":"view"},{"type":"function","name":"executeSwap","inputs":[{"name":"tokenIn","type":"address","internalType":"address"},{"name":"tokenOut","type":"address","internalType":"address"},{"name":"fee","type":"uint24","internalType":"uint24"},{"name":"amountIn","type":"uint256","internalType":"uint256"},{"name":"amountOutMinimum","type":"uint256","internalType":"uint256"}],"outputs":[{"name":"amountOut","type":"uint256","internalType":"uint256"}],"stateMutability":"nonpayable"},{"type":"function","name":"migrateTo","inputs":[{"name":"newVault","type":"address","internalType":"address"},{"name":"tokens","type":"address[]","internalType":"address[]"}],"outputs":[],"stateMutability":"nonpayable"},{"type":"function","name":"owner","inputs":[],"outputs":[{"name":"","type":"address","internalType":"address"}],"stateMutability":"view"},{"type":"function","name":"policy","inputs":[],"outputs":[{"name":"","type":"address","internalType":"address"}],"stateMutability":"view"},{"type":"function","name":"router","inputs":[],"outputs":[{"name":"","type":"address","internalType":"address"}],"stateMutability":"view"},{"type":"function","name":"setAgent","inputs":[{"name":"newAgent","type":"address","internalType":"address"}],"outputs":[],"stateMutability":"nonpayable"},{"type":"function","name":"setLidoAddresses","inputs":[{"name":"_stETH","type":"address","internalType":"address"},{"name":"_wstETH","type":"address","internalType":"address"}],"outputs":[],"stateMutability":"nonpayable"},{"type":"function","name":"stETH","inputs":[],"outputs":[{"name":"","type":"address","internalType":"address"}],"stateMutability":"view"},{"type":"function","name":"stakeETH","inputs":[{"name":"amount","type":"uint256","internalType":"uint256"}],"outputs":[],"stateMutability":"nonpayable"},{"type":"function","name":"tradeYield","inputs":[{"name":"tokenOut","type":"address","internalType":"address"},{"name":"fee","type":"uint24","internalType":"uint24"},{"name":"amountIn","type":"uint256","internalType":"uint256"},{"name":"amountOutMinimum","type":"uint256","internalType":"uint256"}],"outputs":[{"name":"amountOut","type":"uint256","internalType":"uint256"}],"stateMutability":"nonpayable"},{"type":"function","name":"withdraw","inputs":[{"name":"token","type":"address","internalType":"address"},{"name":"amount","type":"uint256","internalType":"uint256"}],"outputs":[],"stateMutability":"nonpayable"},{"type":"function","name":"withdrawETH","inputs":[{"name":"amount","type":"uint256","internalType":"uint256"}],"outputs":[],"stateMutability":"nonpayable"},{"type":"function","name":"wstETH","inputs":[],"outputs":[{"name":"","type":"address","internalType":"address"}],"stateMutability":"view"},{"type":"event","name":"AgentUpdated","inputs":[{"name":"oldAgent","type":"address","indexed":true,"internalType":"address"},{"name":"newAgent","type":"address","indexed":true,"internalType":"address"}],"anonymous":false},{"type":"event","name":"Deposited","inputs":[{"name":"token","type":"address","indexed":true,"internalType":"address"},{"name":"amount","type":"uint256","indexed":false,"internalType":"uint256"}],"anonymous":false},{"type":"event","name":"Staked","inputs":[{"name":"ethAmount","type":"uint256","indexed":false,"internalType":"uint256"},{"name":"stETHReceived","type":"uint256","indexed":false,"internalType":"uint256"}],"anonymous":false},{"type":"event","name":"SwapExecuted","inputs":[{"name":"agent","type":"address","indexed":true,"internalType":"address"},{"name":"tokenIn","type":"address","indexed":false,"internalType":"address"},{"name":"tokenOut","type":"address","indexed":false,"internalType":"address"},{"name":"amountIn","type":"uint256","indexed":false,"internalType":"uint256"},{"name":"amountOut","type":"uint256","indexed":false,"internalType":"uint256"}],"anonymous":false},{"type":"event","name":"Withdrawn","inputs":[{"name":"token","type":"address","indexed":true,"internalType":"address"},{"name":"amount","type":"uint256","indexed":false,"internalType":"uint256"}],"anonymous":false},{"type":"event","name":"YieldWithdrawn","inputs":[{"name":"yieldAmount","type":"uint256","indexed":false,"internalType":"uint256"}],"anonymous":false}],"bytecode":{"object":"0x60e060405234801561000f575f5ffd5b5060405161286d38038061286d83398181016040528101906100319190610173565b8373ffffffffffffffffffffffffffffffffffffffff1660808173ffffffffffffffffffffffffffffffffffffffff1681525050825f5f6101000a81548173ffffffffffffffffffffffffffffffffffffffff021916908373ffffffffffffffffffffffffffffffffffffffff1602179055508173ffffffffffffffffffffffffffffffffffffffff1660a08173ffffffffffffffffffffffffffffffffffffffff16815250508073ffffffffffffffffffffffffffffffffffffffff1660c08173ffffffffffffffffffffffffffffffffffffffff1681525050505050506101d7565b5f5ffd5b5f73ffffffffffffffffffffffffffffffffffffffff82169050919050565b5f61014282610119565b9050919050565b61015281610138565b811461015c575f5ffd5b50565b5f8151905061016d81610149565b92915050565b5f5f5f5f6080858703121561018b5761018a610115565b5b5f6101988782880161015f565b94505060206101a98782880161015f565b93505060406101ba8782880161015f565b92505060606101cb8782880161015f565b91505092959194509250565b60805160a05160c05161260a6102635f395f61047f01525f818161066e015281816106ee0152818161151a0152818161159a0152611c5601525f81816107ee015281816109f101528181610bf10152818161103201528181611056015281816111800152818161169d015281816117a6015281816118d30152818161197d0152611ab1015261260a5ff3fe608060405260043610610122575f3560e01c8063bcf685ed1161009f578063f14210a611610063578063f14210a6146103cf578063f3fef3a3146103f7578063f5ff5c761461041f578063f6326fb314610449578063f887ea401461045357610129565b8063bcf685ed146102db578063c1fe3e4814610303578063cbe252241461032d578063e3d670d714610357578063ec35f8c11461039357610129565b80635f3373d5116100e65780635f3373d51461020f5780636ecc20da146102375780638da5cb5b1461025f5780639d89319214610289578063ad5c4648146102b157610129565b80630505c8c91461012d578063175e439c14610157578063197a290a14610181578063338b5dea146101bd5780634aa07e64146101e557610129565b3661012957005b5f5ffd5b348015610138575f5ffd5b5061014161047d565b60405161014e9190611cb7565b60405180910390f35b348015610162575f5ffd5b5061016b6104a1565b6040516101789190611ce8565b60405180910390f35b34801561018c575f5ffd5b506101a760048036038101906101a29190611d95565b6105c1565b6040516101b49190611ce8565b60405180910390f35b3480156101c8575f5ffd5b506101e360048036038101906101de9190611e0c565b6107ec565b005b3480156101f0575f5ffd5b506101f96109ca565b6040516102069190611cb7565b60405180910390f35b34801561021a575f5ffd5b5061023560048036038101906102309190611eab565b6109ef565b005b348015610242575f5ffd5b5061025d60048036038101906102589190611f08565b610bef565b005b34801561026a575f5ffd5b50610273611030565b6040516102809190611cb7565b60405180910390f35b348015610294575f5ffd5b506102af60048036038101906102aa9190611f33565b611054565b005b3480156102bc575f5ffd5b506102c5611166565b6040516102d29190611cb7565b60405180910390f35b3480156102e6575f5ffd5b5061030160048036038101906102fc9190611f71565b61117e565b005b34801561030e575f5ffd5b506103176112c8565b6040516103249190611cb7565b60405180910390f35b348015610338575f5ffd5b506103416112ed565b60405161034e9190611ce8565b60405180910390f35b348015610362575f5ffd5b5061037d60048036038101906103789190611f71565b6112f3565b60405161038a9190611ce8565b60405180910390f35b34801561039e575f5ffd5b506103b960048036038101906103b49190611f9c565b611373565b6040516103c69190611ce8565b60405180910390f35b3480156103da575f5ffd5b506103f560048036038101906103f09190611f08565b61169b565b005b348015610402575f5ffd5b5061041d60048036038101906104189190611e0c565b6118d1565b005b34801561042a575f5ffd5b50610433611a8b565b6040516104409190611cb7565b60405180910390f35b610451611aaf565b005b34801561045e575f5ffd5b50610467611c54565b6040516104749190611cb7565b60405180910390f35b7f000000000000000000000000000000000000000000000000000000000000000081565b5f5f73ffffffffffffffffffffffffffffffffffffffff1660025f9054906101000a900473ffffffffffffffffffffffffffffffffffffffff1673ffffffffffffffffffffffffffffffffffffffff16036104fe575f90506105be565b5f60025f9054906101000a900473ffffffffffffffffffffffffffffffffffffffff1673ffffffffffffffffffffffffffffffffffffffff166370a08231306040518263ffffffff1660e01b81526004016105599190611cb7565b602060405180830381865afa158015610574573d5f5f3e3d5ffd5b505050506040513d601f19601f820116820180604052508101906105989190612014565b905060035481116105ac575f9150506105be565b600354816105ba919061206c565b9150505b90565b5f5f5f9054906101000a900473ffffffffffffffffffffffffffffffffffffffff1673ffffffffffffffffffffffffffffffffffffffff163373ffffffffffffffffffffffffffffffffffffffff1614610650576040517f08c379a0000000000000000000000000000000000000000000000000000000008152600401610647906120f9565b60405180910390fd5b8573ffffffffffffffffffffffffffffffffffffffff1663095ea7b37f0000000000000000000000000000000000000000000000000000000000000000856040518363ffffffff1660e01b81526004016106ab929190612117565b6020604051808303815f875af11580156106c7573d5f5f3e3d5ffd5b505050506040513d601f19601f820116820180604052508101906106eb9190612173565b507f000000000000000000000000000000000000000000000000000000000000000073ffffffffffffffffffffffffffffffffffffffff16633bf237d587878787876040518663ffffffff1660e01b815260040161074d9594939291906121ad565b6020604051808303815f875af1158015610769573d5f5f3e3d5ffd5b505050506040513d601f19601f8201168201806040525081019061078d9190612014565b90503373ffffffffffffffffffffffffffffffffffffffff167f764f0dc063c06f32d89a3f3af80c0db4be8a090901f589a478b447e0a51f09f1878786856040516107db94939291906121fe565b60405180910390a295945050505050565b7f000000000000000000000000000000000000000000000000000000000000000073ffffffffffffffffffffffffffffffffffffffff163373ffffffffffffffffffffffffffffffffffffffff161461087a576040517f08c379a00000000000000000000000000000000000000000000000000000000081526004016108719061228b565b60405180910390fd5b5f81116108bc576040517f08c379a00000000000000000000000000000000000000000000000000000000081526004016108b3906122f3565b60405180910390fd5b8173ffffffffffffffffffffffffffffffffffffffff166323b872dd3330846040518463ffffffff1660e01b81526004016108f993929190612311565b6020604051808303815f875af1158015610915573d5f5f3e3d5ffd5b505050506040513d601f19601f820116820180604052508101906109399190612173565b610978576040517f08c379a000000000000000000000000000000000000000000000000000000000815260040161096f90612390565b60405180910390fd5b8173ffffffffffffffffffffffffffffffffffffffff167f2da466a7b24304f47e87fa2e1e5a81b9831ce54fec19055ce277ca2f39ba42c4826040516109be9190611ce8565b60405180910390a25050565b60025f9054906101000a900473ffffffffffffffffffffffffffffffffffffffff1681565b7f000000000000000000000000000000000000000000000000000000000000000073ffffffffffffffffffffffffffffffffffffffff163373ffffffffffffffffffffffffffffffffffffffff1614610a7d576040517f08c379a0000000000000000000000000000000000000000000000000000000008152600401610a749061228b565b60405180910390fd5b5f5f90505b82829050811015610be9575f838383818110610aa157610aa06123ae565b5b9050602002016020810190610ab69190611f71565b73ffffffffffffffffffffffffffffffffffffffff166370a08231306040518263ffffffff1660e01b8152600401610aee9190611cb7565b602060405180830381865afa158015610b09573d5f5f3e3d5ffd5b505050506040513d601f19601f82011682018060405250810190610b2d9190612014565b90505f811115610bdb57838383818110610b4a57610b496123ae565b5b9050602002016020810190610b5f9190611f71565b73ffffffffffffffffffffffffffffffffffffffff1663a9059cbb86836040518363ffffffff1660e01b8152600401610b99929190612117565b6020604051808303815f875af1158015610bb5573d5f5f3e3d5ffd5b505050506040513d601f19601f82011682018060405250810190610bd99190612173565b505b508080600101915050610a82565b50505050565b7f000000000000000000000000000000000000000000000000000000000000000073ffffffffffffffffffffffffffffffffffffffff163373ffffffffffffffffffffffffffffffffffffffff1614610c7d576040517f08c379a0000000000000000000000000000000000000000000000000000000008152600401610c749061228b565b60405180910390fd5b5f73ffffffffffffffffffffffffffffffffffffffff1660015f9054906101000a900473ffffffffffffffffffffffffffffffffffffffff1673ffffffffffffffffffffffffffffffffffffffff1614158015610d2757505f73ffffffffffffffffffffffffffffffffffffffff1660025f9054906101000a900473ffffffffffffffffffffffffffffffffffffffff1673ffffffffffffffffffffffffffffffffffffffff1614155b610d66576040517f08c379a0000000000000000000000000000000000000000000000000000000008152600401610d5d90612425565b60405180910390fd5b73420000000000000000000000000000000000000673ffffffffffffffffffffffffffffffffffffffff16632e1a7d4d826040518263ffffffff1660e01b8152600401610db39190611ce8565b5f604051808303815f87803b158015610dca575f5ffd5b505af1158015610ddc573d5f5f3e3d5ffd5b505050505f60015f9054906101000a900473ffffffffffffffffffffffffffffffffffffffff1673ffffffffffffffffffffffffffffffffffffffff1663a1903eab835f6040518363ffffffff1660e01b8152600401610e3c9190611cb7565b60206040518083038185885af1158015610e58573d5f5f3e3d5ffd5b50505050506040513d601f19601f82011682018060405250810190610e7d9190612014565b905060015f9054906101000a900473ffffffffffffffffffffffffffffffffffffffff1673ffffffffffffffffffffffffffffffffffffffff1663095ea7b360025f9054906101000a900473ffffffffffffffffffffffffffffffffffffffff16836040518363ffffffff1660e01b8152600401610efc929190612117565b6020604051808303815f875af1158015610f18573d5f5f3e3d5ffd5b505050506040513d601f19601f82011682018060405250810190610f3c9190612173565b505f60025f9054906101000a900473ffffffffffffffffffffffffffffffffffffffff1673ffffffffffffffffffffffffffffffffffffffff1663ea598cb0836040518263ffffffff1660e01b8152600401610f989190611ce8565b6020604051808303815f875af1158015610fb4573d5f5f3e3d5ffd5b505050506040513d601f19601f82011682018060405250810190610fd89190612014565b90508060035f828254610feb9190612443565b925050819055507f925435fa7e37e5d9555bb18ce0d62bb9627d0846942e58e5291e9a2dded462ed8383604051611023929190612476565b60405180910390a1505050565b7f000000000000000000000000000000000000000000000000000000000000000081565b7f000000000000000000000000000000000000000000000000000000000000000073ffffffffffffffffffffffffffffffffffffffff163373ffffffffffffffffffffffffffffffffffffffff16146110e2576040517f08c379a00000000000000000000000000000000000000000000000000000000081526004016110d99061228b565b60405180910390fd5b8160015f6101000a81548173ffffffffffffffffffffffffffffffffffffffff021916908373ffffffffffffffffffffffffffffffffffffffff1602179055508060025f6101000a81548173ffffffffffffffffffffffffffffffffffffffff021916908373ffffffffffffffffffffffffffffffffffffffff1602179055505050565b73420000000000000000000000000000000000000681565b7f000000000000000000000000000000000000000000000000000000000000000073ffffffffffffffffffffffffffffffffffffffff163373ffffffffffffffffffffffffffffffffffffffff161461120c576040517f08c379a00000000000000000000000000000000000000000000000000000000081526004016112039061228b565b60405180910390fd5b8073ffffffffffffffffffffffffffffffffffffffff165f5f9054906101000a900473ffffffffffffffffffffffffffffffffffffffff1673ffffffffffffffffffffffffffffffffffffffff167fee7760cb405d3beb1072ae2e716857daa45a5dd52bc1383a21173199d32c7dee60405160405180910390a3805f5f6101000a81548173ffffffffffffffffffffffffffffffffffffffff021916908373ffffffffffffffffffffffffffffffffffffffff16021790555050565b60015f9054906101000a900473ffffffffffffffffffffffffffffffffffffffff1681565b60035481565b5f8173ffffffffffffffffffffffffffffffffffffffff166370a08231306040518263ffffffff1660e01b815260040161132d9190611cb7565b602060405180830381865afa158015611348573d5f5f3e3d5ffd5b505050506040513d601f19601f8201168201806040525081019061136c9190612014565b9050919050565b5f5f5f9054906101000a900473ffffffffffffffffffffffffffffffffffffffff1673ffffffffffffffffffffffffffffffffffffffff163373ffffffffffffffffffffffffffffffffffffffff1614611402576040517f08c379a00000000000000000000000000000000000000000000000000000000081526004016113f9906120f9565b60405180910390fd5b5f73ffffffffffffffffffffffffffffffffffffffff1660025f9054906101000a900473ffffffffffffffffffffffffffffffffffffffff1673ffffffffffffffffffffffffffffffffffffffff1603611491576040517f08c379a000000000000000000000000000000000000000000000000000000000815260040161148890612425565b60405180910390fd5b6114996104a1565b8311156114db576040517f08c379a00000000000000000000000000000000000000000000000000000000081526004016114d29061250d565b60405180910390fd5b60025f9054906101000a900473ffffffffffffffffffffffffffffffffffffffff1673ffffffffffffffffffffffffffffffffffffffff1663095ea7b37f0000000000000000000000000000000000000000000000000000000000000000856040518363ffffffff1660e01b8152600401611557929190612117565b6020604051808303815f875af1158015611573573d5f5f3e3d5ffd5b505050506040513d601f19601f820116820180604052508101906115979190612173565b507f000000000000000000000000000000000000000000000000000000000000000073ffffffffffffffffffffffffffffffffffffffff16633bf237d560025f9054906101000a900473ffffffffffffffffffffffffffffffffffffffff16878787876040518663ffffffff1660e01b815260040161161a9594939291906121ad565b6020604051808303815f875af1158015611636573d5f5f3e3d5ffd5b505050506040513d601f19601f8201168201806040525081019061165a9190612014565b90507f725f92d8c607d9acbf85eac77685574b3824805f20f5b48e5847ca7acd5299558360405161168b9190611ce8565b60405180910390a1949350505050565b7f000000000000000000000000000000000000000000000000000000000000000073ffffffffffffffffffffffffffffffffffffffff163373ffffffffffffffffffffffffffffffffffffffff1614611729576040517f08c379a00000000000000000000000000000000000000000000000000000000081526004016117209061228b565b60405180910390fd5b73420000000000000000000000000000000000000673ffffffffffffffffffffffffffffffffffffffff16632e1a7d4d826040518263ffffffff1660e01b81526004016117769190611ce8565b5f604051808303815f87803b15801561178d575f5ffd5b505af115801561179f573d5f5f3e3d5ffd5b505050505f7f000000000000000000000000000000000000000000000000000000000000000073ffffffffffffffffffffffffffffffffffffffff16826040516117e890612558565b5f6040518083038185875af1925050503d805f8114611822576040519150601f19603f3d011682016040523d82523d5f602084013e611827565b606091505b505090508061186b576040517f08c379a0000000000000000000000000000000000000000000000000000000008152600401611862906125b6565b60405180910390fd5b73420000000000000000000000000000000000000673ffffffffffffffffffffffffffffffffffffffff167f7084f5476618d8e60b11ef0d7d3f06914655adb8793e28ff7f018d4c76d505d5836040516118c59190611ce8565b60405180910390a25050565b7f000000000000000000000000000000000000000000000000000000000000000073ffffffffffffffffffffffffffffffffffffffff163373ffffffffffffffffffffffffffffffffffffffff161461195f576040517f08c379a00000000000000000000000000000000000000000000000000000000081526004016119569061228b565b60405180910390fd5b8173ffffffffffffffffffffffffffffffffffffffff1663a9059cbb7f0000000000000000000000000000000000000000000000000000000000000000836040518363ffffffff1660e01b81526004016119ba929190612117565b6020604051808303815f875af11580156119d6573d5f5f3e3d5ffd5b505050506040513d601f19601f820116820180604052508101906119fa9190612173565b611a39576040517f08c379a0000000000000000000000000000000000000000000000000000000008152600401611a3090612390565b60405180910390fd5b8173ffffffffffffffffffffffffffffffffffffffff167f7084f5476618d8e60b11ef0d7d3f06914655adb8793e28ff7f018d4c76d505d582604051611a7f9190611ce8565b60405180910390a25050565b5f5f9054906101000a900473ffffffffffffffffffffffffffffffffffffffff1681565b7f000000000000000000000000000000000000000000000000000000000000000073ffffffffffffffffffffffffffffffffffffffff163373ffffffffffffffffffffffffffffffffffffffff1614611b3d576040517f08c379a0000000000000000000000000000000000000000000000000000000008152600401611b349061228b565b60405180910390fd5b5f3411611b7f576040517f08c379a0000000000000000000000000000000000000000000000000000000008152600401611b76906122f3565b60405180910390fd5b73420000000000000000000000000000000000000673ffffffffffffffffffffffffffffffffffffffff1663d0e30db0346040518263ffffffff1660e01b81526004015f604051808303818588803b158015611bd9575f5ffd5b505af1158015611beb573d5f5f3e3d5ffd5b505050505073420000000000000000000000000000000000000673ffffffffffffffffffffffffffffffffffffffff167f2da466a7b24304f47e87fa2e1e5a81b9831ce54fec19055ce277ca2f39ba42c434604051611c4a9190611ce8565b60405180910390a2565b7f000000000000000000000000000000000000000000000000000000000000000081565b5f73ffffffffffffffffffffffffffffffffffffffff82169050919050565b5f611ca182611c78565b9050919050565b611cb181611c97565b82525050565b5f602082019050611cca5f830184611ca8565b92915050565b5f819050919050565b611ce281611cd0565b82525050565b5f602082019050611cfb5f830184611cd9565b92915050565b5f5ffd5b5f5ffd5b611d1281611c97565b8114611d1c575f5ffd5b50565b5f81359050611d2d81611d09565b92915050565b5f62ffffff82169050919050565b611d4a81611d33565b8114611d54575f5ffd5b50565b5f81359050611d6581611d41565b92915050565b611d7481611cd0565b8114611d7e575f5ffd5b50565b5f81359050611d8f81611d6b565b92915050565b5f5f5f5f5f60a08688031215611dae57611dad611d01565b5b5f611dbb88828901611d1f565b9550506020611dcc88828901611d1f565b9450506040611ddd88828901611d57565b9350506060611dee88828901611d81565b9250506080611dff88828901611d81565b9150509295509295909350565b5f5f60408385031215611e2257611e21611d01565b5b5f611e2f85828601611d1f565b9250506020611e4085828601611d81565b9150509250929050565b5f5ffd5b5f5ffd5b5f5ffd5b5f5f83601f840112611e6b57611e6a611e4a565b5b8235905067ffffffffffffffff811115611e8857611e87611e4e565b5b602083019150836020820283011115611ea457611ea3611e52565b5b9250929050565b5f5f5f60408486031215611ec257611ec1611d01565b5b5f611ecf86828701611d1f565b935050602084013567ffffffffffffffff811115611ef057611eef611d05565b5b611efc86828701611e56565b92509250509250925092565b5f60208284031215611f1d57611f1c611d01565b5b5f611f2a84828501611d81565b91505092915050565b5f5f60408385031215611f4957611f48611d01565b5b5f611f5685828601611d1f565b9250506020611f6785828601611d1f565b9150509250929050565b5f60208284031215611f8657611f85611d01565b5b5f611f9384828501611d1f565b91505092915050565b5f5f5f5f60808587031215611fb457611fb3611d01565b5b5f611fc187828801611d1f565b9450506020611fd287828801611d57565b9350506040611fe387828801611d81565b9250506060611ff487828801611d81565b91505092959194509250565b5f8151905061200e81611d6b565b92915050565b5f6020828403121561202957612028611d01565b5b5f61203684828501612000565b91505092915050565b7f4e487b71000000000000000000000000000000000000000000000000000000005f52601160045260245ffd5b5f61207682611cd0565b915061208183611cd0565b92508282039050818111156120995761209861203f565b5b92915050565b5f82825260208201905092915050565b7f4167656e745661756c743a206e6f74206167656e7400000000000000000000005f82015250565b5f6120e360158361209f565b91506120ee826120af565b602082019050919050565b5f6020820190508181035f830152612110816120d7565b9050919050565b5f60408201905061212a5f830185611ca8565b6121376020830184611cd9565b9392505050565b5f8115159050919050565b6121528161213e565b811461215c575f5ffd5b50565b5f8151905061216d81612149565b92915050565b5f6020828403121561218857612187611d01565b5b5f6121958482850161215f565b91505092915050565b6121a781611d33565b82525050565b5f60a0820190506121c05f830188611ca8565b6121cd6020830187611ca8565b6121da604083018661219e565b6121e76060830185611cd9565b6121f46080830184611cd9565b9695505050505050565b5f6080820190506122115f830187611ca8565b61221e6020830186611ca8565b61222b6040830185611cd9565b6122386060830184611cd9565b95945050505050565b7f4167656e745661756c743a206e6f74206f776e657200000000000000000000005f82015250565b5f61227560158361209f565b915061228082612241565b602082019050919050565b5f6020820190508181035f8301526122a281612269565b9050919050565b7f4167656e745661756c743a207a65726f206465706f73697400000000000000005f82015250565b5f6122dd60188361209f565b91506122e8826122a9565b602082019050919050565b5f6020820190508181035f83015261230a816122d1565b9050919050565b5f6060820190506123245f830186611ca8565b6123316020830185611ca8565b61233e6040830184611cd9565b949350505050565b7f4167656e745661756c743a207472616e73666572206661696c656400000000005f82015250565b5f61237a601b8361209f565b915061238582612346565b602082019050919050565b5f6020820190508181035f8301526123a78161236e565b9050919050565b7f4e487b71000000000000000000000000000000000000000000000000000000005f52603260045260245ffd5b7f4167656e745661756c743a204c69646f206e6f7420636f6e66696775726564005f82015250565b5f61240f601f8361209f565b915061241a826123db565b602082019050919050565b5f6020820190508181035f83015261243c81612403565b9050919050565b5f61244d82611cd0565b915061245883611cd0565b92508282019050808211156124705761246f61203f565b5b92915050565b5f6040820190506124895f830185611cd9565b6124966020830184611cd9565b9392505050565b7f4167656e745661756c743a206578636565647320617661696c61626c652079695f8201527f656c640000000000000000000000000000000000000000000000000000000000602082015250565b5f6124f760238361209f565b91506125028261249d565b604082019050919050565b5f6020820190508181035f830152612524816124eb565b9050919050565b5f81905092915050565b50565b5f6125435f8361252b565b915061254e82612535565b5f82019050919050565b5f61256282612538565b9150819050919050565b7f4167656e745661756c743a20455448207472616e73666572206661696c6564005f82015250565b5f6125a0601f8361209f565b91506125ab8261256c565b602082019050919050565b5f6020820190508181035f8301526125cd81612594565b905091905056fea26469706673582212207d28a030cae3b86392fca5e2dc72d051f69e63245a13df9b15a063925329245264736f6c63430008210033","linkReferences":{}},"methodIdentifiers":{"WETH()":"ad5c4648","agent()":"f5ff5c76","availableYield()":"175e439c","balance(address)":"e3d670d7","depositETH()":"f6326fb3","depositToken(address,uint256)":"338b5dea","depositedPrincipal()":"cbe25224","executeSwap(address,address,uint24,uint256,uint256)":"197a290a","migrateTo(address,address[])":"5f3373d5","owner()":"8da5cb5b","policy()":"0505c8c9","router()":"f887ea40","setAgent(address)":"bcf685ed","setLidoAddresses(address,address)":"9d893192","stETH()":"c1fe3e48","stakeETH(uint256)":"6ecc20da","tradeYield(address,uint24,uint256,uint256)":"ec35f8c1","withdraw(address,uint256)":"f3fef3a3","withdrawETH(uint256)":"f14210a6","wstETH()":"4aa07e64"},"id":17}