{"abi":[{"type":"function","name":"agentOwner","inputs":[{"name":"","type":"address","internalType":"address"}],"outputs":[{"name":"","type":"address","internalType":"address"}],"stateMutability":"view"},{"type":"function","name":"approveToken","inputs":[{"name":"agent","type":"address","internalType":"address"},{"name":"token","type":"address","internalType":"address"}],"outputs":[],"stateMutability":"nonpayable"},{"type":"function","name":"approvedTokens","inputs":[{"name":"","type":"address","internalType":"address"},{"name":"","type":"address","internalType":"address"}],"outputs":[{"name":"","type":"bool","internalType":"bool"}],"stateMutability":"view"},{"type":"function","name":"checkAction","inputs":[{"name":"agent","type":"address","internalType":"address"},{"name":"token","type":"address","internalType":"address"},{"name":"amount","type":"uint256","internalType":"uint256"}],"outputs":[{"name":"allowed","type":"bool","internalType":"bool"},{"name":"reason","type":"string","internalType":"string"}],"stateMutability":"view"},{"type":"function","name":"dailySpent","inputs":[{"name":"","type":"address","internalType":"address"},{"name":"","type":"uint256","internalType":"uint256"}],"outputs":[{"name":"","type":"uint256","internalType":"uint256"}],"stateMutability":"view"},{"type":"function","name":"enforceAndRecord","inputs":[{"name":"agent","type":"address","internalType":"address"},{"name":"token","type":"address","internalType":"address"},{"name":"amount","type":"uint256","internalType":"uint256"}],"outputs":[],"stateMutability":"nonpayable"},{"type":"function","name":"getDailySpent","inputs":[{"name":"agent","type":"address","internalType":"address"}],"outputs":[{"name":"","type":"uint256","internalType":"uint256"}],"stateMutability":"view"},{"type":"function","name":"getRemainingAllowance","inputs":[{"name":"agent","type":"address","internalType":"address"}],"outputs":[{"name":"","type":"uint256","internalType":"uint256"}],"stateMutability":"view"},{"type":"function","name":"policies","inputs":[{"name":"","type":"address","internalType":"address"},{"name":"","type":"address","internalType":"address"}],"outputs":[{"name":"maxPerAction","type":"uint256","internalType":"uint256"},{"name":"dailyLimit","type":"uint256","internalType":"uint256"},{"name":"active","type":"bool","internalType":"bool"}],"stateMutability":"view"},{"type":"function","name":"removeToken","inputs":[{"name":"agent","type":"address","internalType":"address"},{"name":"token","type":"address","internalType":"address"}],"outputs":[],"stateMutability":"nonpayable"},{"type":"function","name":"revokePolicy","inputs":[{"name":"agent","type":"address","internalType":"address"}],"outputs":[],"stateMutability":"nonpayable"},{"type":"function","name":"setPolicy","inputs":[{"name":"agent","type":"address","internalType":"address"},{"name":"maxPerAction","type":"uint256","internalType":"uint256"},{"name":"dailyLimit","type":"uint256","internalType":"uint256"}],"outputs":[],"stateMutability":"nonpayable"},{"type":"event","name":"ActionRecorded","inputs":[{"name":"agent","type":"address","indexed":true,"internalType":"address"},{"name":"token","type":"address","indexed":false,"internalType":"address"},{"name":"amount","type":"uint256","indexed":false,"internalType":"uint256"},{"name":"dailyTotal","type":"uint256","indexed":false,"internalType":"uint256"}],"anonymous":false},{"type":"event","name":"PolicyRevoked","inputs":[{"name":"human","type":"address","indexed":true,"internalType":"address"},{"name":"agent","type":"address","indexed":true,"internalType":"address"}],"anonymous":false},{"type":"event","name":"PolicySet","inputs":[{"name":"human","type":"address","indexed":true,"internalType":"address"},{"name":"agent","type":"address","indexed":true,"internalType":"address"},{"name":"maxPerAction","type":"uint256","indexed":false,"internalType":"uint256"},{"name":"dailyLimit","type":"uint256","indexed":false,"internalType":"uint256"}],"anonymous":false},{"type":"event","name":"TokenApproved","inputs":[{"name":"agent","type":"address","indexed":true,"internalType":"address"},{"name":"token","type":"address","indexed":true,"internalType":"address"}],"anonymous":false},{"type":"event","name":"TokenRemoved","inputs":[{"name":"agent","type":"address","indexed":true,"internalType":"address"},{"name":"token","type":"address","indexed":true,"internalType":"address"}],"anonymous":false}],"bytecode":{"object":"0x6080604052348015600e575f5ffd5b50611b0d8061001c5f395ff3fe608060405234801561000f575f5ffd5b50600436106100b2575f3560e01c80639735b0e31161006f5780639735b0e3146101b05780639fda230a146101cc578063e64f92cb146101e8578063ef09206514610204578063f544310e14610234578063f7842e8714610264576100b2565b806303105b04146100b6578063187a7b8f146100d25780635b8c9337146101045780638ce6c375146101345780638e33377c146101645780639061a57f14610180575b5f5ffd5b6100d060048036038101906100cb919061148d565b610295565b005b6100ec60048036038101906100e7919061148d565b61044d565b6040516100fb939291906114fd565b60405180910390f35b61011e60048036038101906101199190611532565b610489565b60405161012b919061155d565b60405180910390f35b61014e60048036038101906101499190611532565b6104ec565b60405161015b9190611585565b60405180910390f35b61017e600480360381019061017991906115c8565b61051c565b005b61019a60048036038101906101959190611618565b6106cc565b6040516101a7919061155d565b60405180910390f35b6101ca60048036038101906101c5919061148d565b6106ec565b005b6101e660048036038101906101e19190611532565b6108a3565b005b61020260048036038101906101fd9190611656565b610a5b565b005b61021e60048036038101906102199190611532565b610e55565b60405161022b919061155d565b60405180910390f35b61024e6004803603810190610249919061148d565b611066565b60405161025b91906116a6565b60405180910390f35b61027e60048036038101906102799190611656565b611090565b60405161028c92919061172f565b60405180910390f35b3373ffffffffffffffffffffffffffffffffffffffff1660025f8473ffffffffffffffffffffffffffffffffffffffff1673ffffffffffffffffffffffffffffffffffffffff1681526020019081526020015f205f9054906101000a900473ffffffffffffffffffffffffffffffffffffffff1673ffffffffffffffffffffffffffffffffffffffff161461035f576040517f08c379a0000000000000000000000000000000000000000000000000000000008152600401610356906117a7565b60405180910390fd5b600160035f8473ffffffffffffffffffffffffffffffffffffffff1673ffffffffffffffffffffffffffffffffffffffff1681526020019081526020015f205f8373ffffffffffffffffffffffffffffffffffffffff1673ffffffffffffffffffffffffffffffffffffffff1681526020019081526020015f205f6101000a81548160ff0219169083151502179055508073ffffffffffffffffffffffffffffffffffffffff168273ffffffffffffffffffffffffffffffffffffffff167f95ac6a9243eb257624256f38389a079659c62030e9153331cd38ef4ed8bfa00e60405160405180910390a35050565b5f602052815f5260405f20602052805f5260405f205f9150915050805f015490806001015490806002015f9054906101000a900460ff16905083565b5f60015f8373ffffffffffffffffffffffffffffffffffffffff1673ffffffffffffffffffffffffffffffffffffffff1681526020019081526020015f205f62015180426104d7919061181f565b81526020019081526020015f20549050919050565b6002602052805f5260405f205f915054906101000a900473ffffffffffffffffffffffffffffffffffffffff1681565b6040518060600160405280838152602001828152602001600115158152505f5f3373ffffffffffffffffffffffffffffffffffffffff1673ffffffffffffffffffffffffffffffffffffffff1681526020019081526020015f205f8573ffffffffffffffffffffffffffffffffffffffff1673ffffffffffffffffffffffffffffffffffffffff1681526020019081526020015f205f820151815f0155602082015181600101556040820151816002015f6101000a81548160ff0219169083151502179055509050503360025f8573ffffffffffffffffffffffffffffffffffffffff1673ffffffffffffffffffffffffffffffffffffffff1681526020019081526020015f205f6101000a81548173ffffffffffffffffffffffffffffffffffffffff021916908373ffffffffffffffffffffffffffffffffffffffff1602179055508273ffffffffffffffffffffffffffffffffffffffff163373ffffffffffffffffffffffffffffffffffffffff167fbebc407851cb2dcdf0fc23c4cd430e0caa9f6314cdd0f14aa0fe40a0a464000384846040516106bf92919061184f565b60405180910390a3505050565b6001602052815f5260405f20602052805f5260405f205f91509150505481565b3373ffffffffffffffffffffffffffffffffffffffff1660025f8473ffffffffffffffffffffffffffffffffffffffff1673ffffffffffffffffffffffffffffffffffffffff1681526020019081526020015f205f9054906101000a900473ffffffffffffffffffffffffffffffffffffffff1673ffffffffffffffffffffffffffffffffffffffff16146107b6576040517f08c379a00000000000000000000000000000000000000000000000000000000081526004016107ad906117a7565b60405180910390fd5b5f60035f8473ffffffffffffffffffffffffffffffffffffffff1673ffffffffffffffffffffffffffffffffffffffff1681526020019081526020015f205f8373ffffffffffffffffffffffffffffffffffffffff1673ffffffffffffffffffffffffffffffffffffffff1681526020019081526020015f205f6101000a81548160ff0219169083151502179055508073ffffffffffffffffffffffffffffffffffffffff168273ffffffffffffffffffffffffffffffffffffffff167fbbe55b1ff108e23e5ff1a6f5d36946eec15ec0ca0ded2bfed4cdcf697ca9046060405160405180910390a35050565b3373ffffffffffffffffffffffffffffffffffffffff1660025f8373ffffffffffffffffffffffffffffffffffffffff1673ffffffffffffffffffffffffffffffffffffffff1681526020019081526020015f205f9054906101000a900473ffffffffffffffffffffffffffffffffffffffff1673ffffffffffffffffffffffffffffffffffffffff161461096d576040517f08c379a0000000000000000000000000000000000000000000000000000000008152600401610964906117a7565b60405180910390fd5b5f5f5f3373ffffffffffffffffffffffffffffffffffffffff1673ffffffffffffffffffffffffffffffffffffffff1681526020019081526020015f205f8373ffffffffffffffffffffffffffffffffffffffff1673ffffffffffffffffffffffffffffffffffffffff1681526020019081526020015f206002015f6101000a81548160ff0219169083151502179055508073ffffffffffffffffffffffffffffffffffffffff163373ffffffffffffffffffffffffffffffffffffffff167fa01aaa0679ac200f8aa929bd939cdc05e14bde77f50a294ab99bd5388c4e86fa60405160405180910390a350565b5f60025f8573ffffffffffffffffffffffffffffffffffffffff1673ffffffffffffffffffffffffffffffffffffffff1681526020019081526020015f205f9054906101000a900473ffffffffffffffffffffffffffffffffffffffff1690505f73ffffffffffffffffffffffffffffffffffffffff168173ffffffffffffffffffffffffffffffffffffffff1603610af45750610e50565b5f5f5f8373ffffffffffffffffffffffffffffffffffffffff1673ffffffffffffffffffffffffffffffffffffffff1681526020019081526020015f205f8673ffffffffffffffffffffffffffffffffffffffff1673ffffffffffffffffffffffffffffffffffffffff1681526020019081526020015f206040518060600160405290815f820154815260200160018201548152602001600282015f9054906101000a900460ff16151515158152505090508060400151610bea576040517f08c379a0000000000000000000000000000000000000000000000000000000008152600401610be1906118c0565b60405180910390fd5b60035f8673ffffffffffffffffffffffffffffffffffffffff1673ffffffffffffffffffffffffffffffffffffffff1681526020019081526020015f205f8573ffffffffffffffffffffffffffffffffffffffff1673ffffffffffffffffffffffffffffffffffffffff1681526020019081526020015f205f9054906101000a900460ff16610cae576040517f08c379a0000000000000000000000000000000000000000000000000000000008152600401610ca590611928565b60405180910390fd5b805f0151831115610cf4576040517f08c379a0000000000000000000000000000000000000000000000000000000008152600401610ceb906119b6565b60405180910390fd5b5f6201518042610d04919061181f565b90505f8460015f8973ffffffffffffffffffffffffffffffffffffffff1673ffffffffffffffffffffffffffffffffffffffff1681526020019081526020015f205f8481526020019081526020015f2054610d5f91906119d4565b90508260200151811115610da8576040517f08c379a0000000000000000000000000000000000000000000000000000000008152600401610d9f90611a51565b60405180910390fd5b8060015f8973ffffffffffffffffffffffffffffffffffffffff1673ffffffffffffffffffffffffffffffffffffffff1681526020019081526020015f205f8481526020019081526020015f20819055508673ffffffffffffffffffffffffffffffffffffffff167f046b9dc9218c702309ef46c4b3e357df67938e3b4877162e33c19f0cbb62b975878784604051610e4393929190611a6f565b60405180910390a2505050505b505050565b5f5f60025f8473ffffffffffffffffffffffffffffffffffffffff1673ffffffffffffffffffffffffffffffffffffffff1681526020019081526020015f205f9054906101000a900473ffffffffffffffffffffffffffffffffffffffff1690505f73ffffffffffffffffffffffffffffffffffffffff168173ffffffffffffffffffffffffffffffffffffffff1603610f12577fffffffffffffffffffffffffffffffffffffffffffffffffffffffffffffffff915050611061565b5f5f5f8373ffffffffffffffffffffffffffffffffffffffff1673ffffffffffffffffffffffffffffffffffffffff1681526020019081526020015f205f8573ffffffffffffffffffffffffffffffffffffffff1673ffffffffffffffffffffffffffffffffffffffff1681526020019081526020015f206040518060600160405290815f820154815260200160018201548152602001600282015f9054906101000a900460ff16151515158152505090508060400151610fd7575f92505050611061565b5f60015f8673ffffffffffffffffffffffffffffffffffffffff1673ffffffffffffffffffffffffffffffffffffffff1681526020019081526020015f205f6201518042611025919061181f565b81526020019081526020015f205490508160200151811061104b575f9350505050611061565b80826020015161105b9190611aa4565b93505050505b919050565b6003602052815f5260405f20602052805f5260405f205f915091509054906101000a900460ff1681565b5f60605f60025f8773ffffffffffffffffffffffffffffffffffffffff1673ffffffffffffffffffffffffffffffffffffffff1681526020019081526020015f205f9054906101000a900473ffffffffffffffffffffffffffffffffffffffff1690505f73ffffffffffffffffffffffffffffffffffffffff168173ffffffffffffffffffffffffffffffffffffffff160361114157600160405180602001604052805f8152509250925050611427565b5f5f5f8373ffffffffffffffffffffffffffffffffffffffff1673ffffffffffffffffffffffffffffffffffffffff1681526020019081526020015f205f8873ffffffffffffffffffffffffffffffffffffffff1673ffffffffffffffffffffffffffffffffffffffff1681526020019081526020015f206040518060600160405290815f820154815260200160018201548152602001600282015f9054906101000a900460ff1615151515815250509050806040015161123e575f6040518060400160405280600e81526020017f506f6c696379207265766f6b6564000000000000000000000000000000000000815250935093505050611427565b60035f8873ffffffffffffffffffffffffffffffffffffffff1673ffffffffffffffffffffffffffffffffffffffff1681526020019081526020015f205f8773ffffffffffffffffffffffffffffffffffffffff1673ffffffffffffffffffffffffffffffffffffffff1681526020019081526020015f205f9054906101000a900460ff16611309575f6040518060400160405280601281526020017f546f6b656e206e6f7420617070726f7665640000000000000000000000000000815250935093505050611427565b805f0151851115611356575f6040518060400160405280601881526020017f45786365656473207065722d616374696f6e206c696d69740000000000000000815250935093505050611427565b5f6201518042611366919061181f565b905081602001518660015f8b73ffffffffffffffffffffffffffffffffffffffff1673ffffffffffffffffffffffffffffffffffffffff1681526020019081526020015f205f8481526020019081526020015f20546113c591906119d4565b111561140e575f6040518060400160405280601381526020017f45786365656473206461696c79206c696d69740000000000000000000000000081525094509450505050611427565b600160405180602001604052805f815250945094505050505b935093915050565b5f5ffd5b5f73ffffffffffffffffffffffffffffffffffffffff82169050919050565b5f61145c82611433565b9050919050565b61146c81611452565b8114611476575f5ffd5b50565b5f8135905061148781611463565b92915050565b5f5f604083850312156114a3576114a261142f565b5b5f6114b085828601611479565b92505060206114c185828601611479565b9150509250929050565b5f819050919050565b6114dd816114cb565b82525050565b5f8115159050919050565b6114f7816114e3565b82525050565b5f6060820190506115105f8301866114d4565b61151d60208301856114d4565b61152a60408301846114ee565b949350505050565b5f602082840312156115475761154661142f565b5b5f61155484828501611479565b91505092915050565b5f6020820190506115705f8301846114d4565b92915050565b61157f81611452565b82525050565b5f6020820190506115985f830184611576565b92915050565b6115a7816114cb565b81146115b1575f5ffd5b50565b5f813590506115c28161159e565b92915050565b5f5f5f606084860312156115df576115de61142f565b5b5f6115ec86828701611479565b93505060206115fd868287016115b4565b925050604061160e868287016115b4565b9150509250925092565b5f5f6040838503121561162e5761162d61142f565b5b5f61163b85828601611479565b925050602061164c858286016115b4565b9150509250929050565b5f5f5f6060848603121561166d5761166c61142f565b5b5f61167a86828701611479565b935050602061168b86828701611479565b925050604061169c868287016115b4565b9150509250925092565b5f6020820190506116b95f8301846114ee565b92915050565b5f81519050919050565b5f82825260208201905092915050565b8281835e5f83830152505050565b5f601f19601f8301169050919050565b5f611701826116bf565b61170b81856116c9565b935061171b8185602086016116d9565b611724816116e7565b840191505092915050565b5f6040820190506117425f8301856114ee565b818103602083015261175481846116f7565b90509392505050565b7f4e6f74206167656e74206f776e657200000000000000000000000000000000005f82015250565b5f611791600f836116c9565b915061179c8261175d565b602082019050919050565b5f6020820190508181035f8301526117be81611785565b9050919050565b7f4e487b71000000000000000000000000000000000000000000000000000000005f52601260045260245ffd5b7f4e487b71000000000000000000000000000000000000000000000000000000005f52601160045260245ffd5b5f611829826114cb565b9150611834836114cb565b925082611844576118436117c5565b5b828204905092915050565b5f6040820190506118625f8301856114d4565b61186f60208301846114d4565b9392505050565b7f4167656e74506f6c6963793a20706f6c696379207265766f6b656400000000005f82015250565b5f6118aa601b836116c9565b91506118b582611876565b602082019050919050565b5f6020820190508181035f8301526118d78161189e565b9050919050565b7f4167656e74506f6c6963793a20746f6b656e206e6f7420617070726f766564005f82015250565b5f611912601f836116c9565b915061191d826118de565b602082019050919050565b5f6020820190508181035f83015261193f81611906565b9050919050565b7f4167656e74506f6c6963793a2065786365656473207065722d616374696f6e205f8201527f6c696d6974000000000000000000000000000000000000000000000000000000602082015250565b5f6119a06025836116c9565b91506119ab82611946565b604082019050919050565b5f6020820190508181035f8301526119cd81611994565b9050919050565b5f6119de826114cb565b91506119e9836114cb565b9250828201905080821115611a0157611a006117f2565b5b92915050565b7f4167656e74506f6c6963793a2065786365656473206461696c79206c696d69745f82015250565b5f611a3b6020836116c9565b9150611a4682611a07565b602082019050919050565b5f6020820190508181035f830152611a6881611a2f565b9050919050565b5f606082019050611a825f830186611576565b611a8f60208301856114d4565b611a9c60408301846114d4565b949350505050565b5f611aae826114cb565b9150611ab9836114cb565b9250828203905081811115611ad157611ad06117f2565b5b9291505056fea2646970667358221220f0e9e3ab657aae745fd5d2b55f8546a9a353ba813265dd3c404ecf9909df19b964736f6c63430008210033","linkReferences":{}},"methodIdentifiers":{"agentOwner(address)":"8ce6c375","approveToken(address,address)":"03105b04","approvedTokens(address,address)":"f544310e","checkAction(address,address,uint256)":"f7842e87","dailySpent(address,uint256)":"9061a57f","enforceAndRecord(address,address,uint256)":"e64f92cb","getDailySpent(address)":"5b8c9337","getRemainingAllowance(address)":"ef092065","policies(address,address)":"187a7b8f","removeToken(address,address)":"9735b0e3","revokePolicy(address)":"9fda230a","setPolicy(address,uint256,uint256)":"8e33377c"},"id":0}