{"abi":[{"type":"constructor","inputs":[{"name":"_policy","type":"address","internalType":"address"},{"name":"_swapRouter","type":"address","internalType":"address"}],"stateMutability":"nonpayable"},{"type":"function","name":"POLICY","inputs":[],"outputs":[{"name":"","type":"address","internalType":"contract AgentPolicy"}],"stateMutability":"view"},{"type":"function","name":"SWAP_ROUTER","inputs":[],"outputs":[{"name":"","type":"address","internalType":"contract ISwapRouter02"}],"stateMutability":"view"},{"type":"function","name":"checkSwap","inputs":[{"name":"agent","type":"address","internalType":"address"},{"name":"tokenIn","type":"address","internalType":"address"},{"name":"amountIn","type":"uint256","internalType":"uint256"}],"outputs":[{"name":"allowed","type":"bool","internalType":"bool"},{"name":"reason","type":"string","internalType":"string"}],"stateMutability":"view"},{"type":"function","name":"swap","inputs":[{"name":"tokenIn","type":"address","internalType":"address"},{"name":"tokenOut","type":"address","internalType":"address"},{"name":"fee","type":"uint24","internalType":"uint24"},{"name":"amountIn","type":"uint256","internalType":"uint256"},{"name":"amountOutMinimum","type":"uint256","internalType":"uint256"}],"outputs":[{"name":"amountOut","type":"uint256","internalType":"uint256"}],"stateMutability":"nonpayable"},{"type":"event","name":"SwapExecuted","inputs":[{"name":"agent","type":"address","indexed":true,"internalType":"address"},{"name":"tokenIn","type":"address","indexed":false,"internalType":"address"},{"name":"tokenOut","type":"address","indexed":false,"internalType":"address"},{"name":"amountIn","type":"uint256","indexed":false,"internalType":"uint256"},{"name":"amountOut","type":"uint256","indexed":false,"internalType":"uint256"}],"anonymous":false}],"bytecode":{"object":"0x60c060405234801561000f575f5ffd5b50604051610e4c380380610e4c833981810160405281019061003191906100fe565b8173ffffffffffffffffffffffffffffffffffffffff1660808173ffffffffffffffffffffffffffffffffffffffff16815250508073ffffffffffffffffffffffffffffffffffffffff1660a08173ffffffffffffffffffffffffffffffffffffffff1681525050505061013c565b5f5ffd5b5f73ffffffffffffffffffffffffffffffffffffffff82169050919050565b5f6100cd826100a4565b9050919050565b6100dd816100c3565b81146100e7575f5ffd5b50565b5f815190506100f8816100d4565b92915050565b5f5f60408385031215610114576101136100a0565b5b5f610121858286016100ea565b9250506020610132858286016100ea565b9150509250929050565b60805160a051610cd46101785f395f81816102fe0152818161037e015261050501525f818160f00152818161019c01526105290152610cd45ff3fe608060405234801561000f575f5ffd5b506004361061004a575f3560e01c806306a5b5dd1461004e5780633bf237d51461007f578063c6005893146100af578063dadbccee146100cd575b5f5ffd5b610068600480360381019061006391906105e9565b6100eb565b6040516100769291906106c3565b60405180910390f35b61009960048036038101906100949190610729565b610199565b6040516100a691906107af565b60405180910390f35b6100b7610503565b6040516100c49190610823565b60405180910390f35b6100d5610527565b6040516100e2919061085c565b60405180910390f35b5f60607f000000000000000000000000000000000000000000000000000000000000000073ffffffffffffffffffffffffffffffffffffffff1663f7842e878686866040518463ffffffff1660e01b815260040161014b93929190610884565b5f60405180830381865afa158015610165573d5f5f3e3d5ffd5b505050506040513d5f823e3d601f19601f8201168201806040525081019061018d9190610a01565b91509150935093915050565b5f7f000000000000000000000000000000000000000000000000000000000000000073ffffffffffffffffffffffffffffffffffffffff1663e64f92cb3388866040518463ffffffff1660e01b81526004016101f793929190610884565b5f604051808303815f87803b15801561020e575f5ffd5b505af1158015610220573d5f5f3e3d5ffd5b505050508573ffffffffffffffffffffffffffffffffffffffff166323b872dd3330866040518463ffffffff1660e01b815260040161026193929190610884565b6020604051808303815f875af115801561027d573d5f5f3e3d5ffd5b505050506040513d601f19601f820116820180604052508101906102a19190610a5b565b6102e0576040517f08c379a00000000000000000000000000000000000000000000000000000000081526004016102d790610af6565b60405180910390fd5b8573ffffffffffffffffffffffffffffffffffffffff1663095ea7b37f0000000000000000000000000000000000000000000000000000000000000000856040518363ffffffff1660e01b815260040161033b929190610b14565b6020604051808303815f875af1158015610357573d5f5f3e3d5ffd5b505050506040513d601f19601f8201168201806040525081019061037b9190610a5b565b507f000000000000000000000000000000000000000000000000000000000000000073ffffffffffffffffffffffffffffffffffffffff166304e45aaf6040518060e001604052808973ffffffffffffffffffffffffffffffffffffffff1681526020018873ffffffffffffffffffffffffffffffffffffffff1681526020018762ffffff1681526020013373ffffffffffffffffffffffffffffffffffffffff1681526020018681526020018581526020015f73ffffffffffffffffffffffffffffffffffffffff168152506040518263ffffffff1660e01b81526004016104649190610c03565b6020604051808303815f875af1158015610480573d5f5f3e3d5ffd5b505050506040513d601f19601f820116820180604052508101906104a49190610c30565b90503373ffffffffffffffffffffffffffffffffffffffff167f764f0dc063c06f32d89a3f3af80c0db4be8a090901f589a478b447e0a51f09f1878786856040516104f29493929190610c5b565b60405180910390a295945050505050565b7f000000000000000000000000000000000000000000000000000000000000000081565b7f000000000000000000000000000000000000000000000000000000000000000081565b5f604051905090565b5f5ffd5b5f5ffd5b5f73ffffffffffffffffffffffffffffffffffffffff82169050919050565b5f6105858261055c565b9050919050565b6105958161057b565b811461059f575f5ffd5b50565b5f813590506105b08161058c565b92915050565b5f819050919050565b6105c8816105b6565b81146105d2575f5ffd5b50565b5f813590506105e3816105bf565b92915050565b5f5f5f60608486031215610600576105ff610554565b5b5f61060d868287016105a2565b935050602061061e868287016105a2565b925050604061062f868287016105d5565b9150509250925092565b5f8115159050919050565b61064d81610639565b82525050565b5f81519050919050565b5f82825260208201905092915050565b8281835e5f83830152505050565b5f601f19601f8301169050919050565b5f61069582610653565b61069f818561065d565b93506106af81856020860161066d565b6106b88161067b565b840191505092915050565b5f6040820190506106d65f830185610644565b81810360208301526106e8818461068b565b90509392505050565b5f62ffffff82169050919050565b610708816106f1565b8114610712575f5ffd5b50565b5f81359050610723816106ff565b92915050565b5f5f5f5f5f60a0868803121561074257610741610554565b5b5f61074f888289016105a2565b9550506020610760888289016105a2565b945050604061077188828901610715565b9350506060610782888289016105d5565b9250506080610793888289016105d5565b9150509295509295909350565b6107a9816105b6565b82525050565b5f6020820190506107c25f8301846107a0565b92915050565b5f819050919050565b5f6107eb6107e66107e18461055c565b6107c8565b61055c565b9050919050565b5f6107fc826107d1565b9050919050565b5f61080d826107f2565b9050919050565b61081d81610803565b82525050565b5f6020820190506108365f830184610814565b92915050565b5f610846826107f2565b9050919050565b6108568161083c565b82525050565b5f60208201905061086f5f83018461084d565b92915050565b61087e8161057b565b82525050565b5f6060820190506108975f830186610875565b6108a46020830185610875565b6108b160408301846107a0565b949350505050565b6108c281610639565b81146108cc575f5ffd5b50565b5f815190506108dd816108b9565b92915050565b5f5ffd5b5f5ffd5b7f4e487b71000000000000000000000000000000000000000000000000000000005f52604160045260245ffd5b6109218261067b565b810181811067ffffffffffffffff821117156109405761093f6108eb565b5b80604052505050565b5f61095261054b565b905061095e8282610918565b919050565b5f67ffffffffffffffff82111561097d5761097c6108eb565b5b6109868261067b565b9050602081019050919050565b5f6109a56109a084610963565b610949565b9050828152602081018484840111156109c1576109c06108e7565b5b6109cc84828561066d565b509392505050565b5f82601f8301126109e8576109e76108e3565b5b81516109f8848260208601610993565b91505092915050565b5f5f60408385031215610a1757610a16610554565b5b5f610a24858286016108cf565b925050602083015167ffffffffffffffff811115610a4557610a44610558565b5b610a51858286016109d4565b9150509250929050565b5f60208284031215610a7057610a6f610554565b5b5f610a7d848285016108cf565b91505092915050565b7f4167656e744775617264526f757465723a207472616e7366657246726f6d20665f8201527f61696c6564000000000000000000000000000000000000000000000000000000602082015250565b5f610ae060258361065d565b9150610aeb82610a86565b604082019050919050565b5f6020820190508181035f830152610b0d81610ad4565b9050919050565b5f604082019050610b275f830185610875565b610b3460208301846107a0565b9392505050565b610b448161057b565b82525050565b610b53816106f1565b82525050565b610b62816105b6565b82525050565b610b718161055c565b82525050565b60e082015f820151610b8b5f850182610b3b565b506020820151610b9e6020850182610b3b565b506040820151610bb16040850182610b4a565b506060820151610bc46060850182610b3b565b506080820151610bd76080850182610b59565b5060a0820151610bea60a0850182610b59565b5060c0820151610bfd60c0850182610b68565b50505050565b5f60e082019050610c165f830184610b77565b92915050565b5f81519050610c2a816105bf565b92915050565b5f60208284031215610c4557610c44610554565b5b5f610c5284828501610c1c565b91505092915050565b5f608082019050610c6e5f830187610875565b610c7b6020830186610875565b610c8860408301856107a0565b610c9560608301846107a0565b9594505050505056fea2646970667358221220d19bc9fb9325e663481a023c58b93dcc5ea66d55e26b89a7159948b5481e92d764736f6c63430008210033","linkReferences":{}},"methodIdentifiers":{"POLICY()":"dadbccee","SWAP_ROUTER()":"c6005893","checkSwap(address,address,uint256)":"06a5b5dd","swap(address,address,uint24,uint256,uint256)":"3bf237d5"},"id":16}